:100000001AC032C031C030C03BC02EC02DC02CC081
:100010002BC02AC029C028C027C026C025C024C0A4
:1000200023C022C021C02800000070888482418241
:1000300084887000000011241FBECFEDCDBF10E0FA
:10004000A0E6B0E0EAEFF0E002C005900D92A23623
:10005000B107D9F720E0A2E6B0E001C01D92A336B7
:10006000B207E1F73BD047C0CBCF009741F0EFECB0
:10007000F7E03197F1F700C000000197F6CF08953F
:100080001F920F920FB60F9211242F933F938F93CD
:100090009F93EF93FF932091620030E08091600086
:1000A000909161002817390714F010926200E091D6
:1000B0006200F0E0E85DFF4FE491E8BB80916200F0
:1000C0008F5F80936200FF91EF919F918F913F919D
:1000D0002F910F900FBE0F901F9018958FEF87BB39
:1000E00089E08EBD80E197E29BBD8ABD89B78064BF
:0A00F00089BF7894FFCFF894FFCF8A
:0200FA000D00F7
:00000001FF
